{
  "contractName": "HealthRecord",
  "abi": [
    {
      "anonymous": false,
      "inputs": [
        {
          "indexed": true,
          "internalType": "address",
          "name": "patient",
          "type": "address"
        },
        {
          "indexed": false,
          "internalType": "string",
          "name": "diagnosis",
          "type": "string"
        },
        {
          "indexed": false,
          "internalType": "string",
          "name": "treatment",
          "type": "string"
        },
        {
          "indexed": false,
          "internalType": "uint256",
          "name": "timestamp",
          "type": "uint256"
        }
      ],
      "name": "RecordAdded",
      "type": "event"
    },
    {
      "inputs": [
        {
          "internalType": "address",
          "name": "",
          "type": "address"
        }
      ],
      "name": "authorizedDoctors",
      "outputs": [
        {
          "internalType": "bool",
          "name": "",
          "type": "bool"
        }
      ],
      "stateMutability": "view",
      "type": "function",
      "constant": true
    },
    {
      "inputs": [
        {
          "internalType": "address",
          "name": "patient",
          "type": "address"
        },
        {
          "internalType": "string",
          "name": "diagnosis",
          "type": "string"
        },
        {
          "internalType": "string",
          "name": "treatment",
          "type": "string"
        }
      ],
      "name": "addRecord",
      "outputs": [],
      "stateMutability": "nonpayable",
      "type": "function"
    },
    {
      "inputs": [],
      "name": "getRecords",
      "outputs": [
        {
          "components": [
            {
              "internalType": "string",
              "name": "diagnosis",
              "type": "string"
            },
            {
              "internalType": "string",
              "name": "treatment",
              "type": "string"
            },
            {
              "internalType": "uint256",
              "name": "timestamp",
              "type": "uint256"
            }
          ],
          "internalType": "struct HealthRecord.Record[]",
          "name": "",
          "type": "tuple[]"
        }
      ],
      "stateMutability": "view",
      "type": "function",
      "constant": true
    },
    {
      "inputs": [
        {
          "internalType": "address",
          "name": "doctor",
          "type": "address"
        }
      ],
      "name": "authorizeDoctor",
      "outputs": [],
      "stateMutability": "nonpayable",
      "type": "function"
    }
  ],
  "bytecode": "0x608060405234801561001057600080fd5b50610b2d806100206000396000f3fe608060405234801561001057600080fd5b506004361061004c5760003560e01c80632d3975f01461005157806358c9202c146100815780638eff3c291461009d578063d47b41d5146100bb575b600080fd5b61006b600480360381019061006691906105e5565b6100d7565b604051610078919061086e565b60405180910390f35b61009b600480360381019061009691906105e5565b6100f7565b005b6100a5610151565b6040516100b2919061084c565b60405180910390f35b6100d560048036038101906100d0919061060e565b61031a565b005b60016020528060005260406000206000915054906101000a900460ff1681565b60018060008373ffffffffffffffffffffffffffffffffffffffff1673ffffffffffffffffffffffffffffffffffffffff16815260200190815260200160002060006101000a81548160ff02191690831515021790555050565b60606000803373ffffffffffffffffffffffffffffffffffffffff1673ffffffffffffffffffffffffffffffffffffffff168152602001908152602001600020805480602002602001604051908101604052809291908181526020016000905b8282101561031157838290600052602060002090600302016040518060600160405290816000820180546101e490610a3f565b80601f016020809104026020016040519081016040528092919081815260200182805461021090610a3f565b801561025d5780601f106102325761010080835404028352916020019161025d565b820191906000526020600020905b81548152906001019060200180831161024057829003601f168201915b5050505050815260200160018201805461027690610a3f565b80601f01602080910402602001604051908101604052809291908181526020018280546102a290610a3f565b80156102ef5780601f106102c4576101008083540402835291602001916102ef565b820191906000526020600020905b8154815290600101906020018083116102d257829003601f168201915b50505050508152602001600282015481525050815260200190600101906101b1565b50505050905090565b600160003373ffffffffffffffffffffffffffffffffffffffff1673ffffffffffffffffffffffffffffffffffffffff16815260200190815260200160002060009054906101000a900460ff166103a6576040517f08c379a000000000000000000000000000000000000000000000000000000000815260040161039d906108ce565b60405180910390fd5b6000808473ffffffffffffffffffffffffffffffffffffffff1673ffffffffffffffffffffffffffffffffffffffff168152602001908152602001600020604051806060016040528084815260200183815260200142815250908060018154018082558091505060019003906000526020600020906003020160009091909190915060008201518160000190805190602001906104449291906104c5565b5060208201518160010190805190602001906104619291906104c5565b506040820151816002015550508273ffffffffffffffffffffffffffffffffffffffff167fabf956e712eb5b9ee34b39c298c8f13b7e3ab5ac61e12fc5edb7ea72325f2aa38383426040516104b893929190610889565b60405180910390a2505050565b8280546104d190610a3f565b90600052602060002090601f0160209004810192826104f3576000855561053a565b82601f1061050c57805160ff191683800117855561053a565b8280016001018555821561053a579182015b8281111561053957825182559160200191906001019061051e565b5b509050610547919061054b565b5090565b5b8082111561056457600081600090555060010161054c565b5090565b600061057b6105768461091f565b6108ee565b90508281526020810184848401111561059357600080fd5b61059e8482856109fd565b509392505050565b6000813590506105b581610ae0565b92915050565b600082601f8301126105cc57600080fd5b81356105dc848260208601610568565b91505092915050565b6000602082840312156105f757600080fd5b6000610605848285016105a6565b91505092915050565b60008060006060848603121561062357600080fd5b6000610631868287016105a6565b935050602084013567ffffffffffffffff81111561064e57600080fd5b61065a868287016105bb565b925050604084013567ffffffffffffffff81111561067757600080fd5b610683868287016105bb565b9150509250925092565b600061069983836107d7565b905092915050565b60006106ac8261095f565b6106b68185610982565b9350836020820285016106c88561094f565b8060005b8581101561070457848403895281516106e5858261068d565b94506106f083610975565b925060208a019950506001810190506106cc565b50829750879550505050505092915050565b61071f816109c7565b82525050565b60006107308261096a565b61073a8185610993565b935061074a818560208601610a0c565b61075381610acf565b840191505092915050565b60006107698261096a565b61077381856109a4565b9350610783818560208601610a0c565b61078c81610acf565b840191505092915050565b60006107a4601d836109a4565b91507f4e6f7420617574686f72697a656420746f20616464207265636f7264730000006000830152602082019050919050565b600060608301600083015184820360008601526107f48282610725565b9150506020830151848203602086015261080e8282610725565b9150506040830151610823604086018261082e565b508091505092915050565b610837816109f3565b82525050565b610846816109f3565b82525050565b6000602082019050818103600083015261086681846106a1565b905092915050565b60006020820190506108836000830184610716565b92915050565b600060608201905081810360008301526108a3818661075e565b905081810360208301526108b7818561075e565b90506108c6604083018461083d565b949350505050565b600060208201905081810360008301526108e781610797565b9050919050565b6000604051905081810181811067ffffffffffffffff8211171561091557610914610aa0565b5b8060405250919050565b600067ffffffffffffffff82111561093a57610939610aa0565b5b601f19601f8301169050602081019050919050565b6000819050602082019050919050565b600081519050919050565b600081519050919050565b6000602082019050919050565b600082825260208201905092915050565b600082825260208201905092915050565b600082825260208201905092915050565b60006109c0826109d3565b9050919050565b60008115159050919050565b600073ffffffffffffffffffffffffffffffffffffffff82169050919050565b6000819050919050565b82818337600083830152505050565b60005b83811015610a2a578082015181840152602081019050610a0f565b83811115610a39576000848401525b50505050565b60006002820490506001821680610a5757607f821691505b60208210811415610a6b57610a6a610a71565b5b50919050565b7f4e487b7100000000000000000000000000000000000000000000000000000000600052602260045260246000fd5b7f4e487b7100000000000000000000000000000000000000000000000000000000600052604160045260246000fd5b6000601f19601f8301169050919050565b610ae9816109b5565b8114610af457600080fd5b5056fea26469706673582212208114a28fffb0d334765f74bab61e4976d00f8b189bca7b84ce30c04439923a4964736f6c63430008000033",
  "immutableReferences": {},
  "source": "// contracts/HealthRecord.sol\n// SPDX-License-Identifier: MIT\npragma solidity ^0.8.0;\n\ncontract HealthRecord {\n    struct Record {\n        string diagnosis;\n        string treatment;\n        uint256 timestamp;\n    }\n\n    mapping(address => Record[]) private records;\n    mapping(address => bool) public authorizedDoctors;\n\n    // Add a new health record for a patient\n    event RecordAdded(address indexed patient, string diagnosis, string treatment, uint256 timestamp);\n\n    function addRecord(address patient, string memory diagnosis, string memory treatment) public {\n        require(authorizedDoctors[msg.sender], \"Not authorized to add records\");\n        records[patient].push(Record(diagnosis, treatment, block.timestamp));\n        emit RecordAdded(patient, diagnosis, treatment, block.timestamp); // Emit event\n    }\n\n\n    // View health records of the sender\n    function getRecords() public view returns (Record[] memory) {\n        return records[msg.sender];\n    }\n\n    // Authorize a doctor\n    function authorizeDoctor(address doctor) public {\n        authorizedDoctors[doctor] = true;\n    }\n}\n",
  "sourcePath": "/Users/aritrosaha/Developer/Blockchain/EHR-VIT/contracts/HealthRecord.sol",
  "compiler": {
    "name": "solc",
    "version": "0.8.0+commit.c7dfd78e.Emscripten.clang"
  },
  "schemaVersion": "3.4.16",
  "updatedAt": "2024-10-05T16:59:55.220Z",
  "networkType": "ethereum",
  "devdoc": {
    "kind": "dev",
    "methods": {},
    "version": 1
  },
  "userdoc": {
    "kind": "user",
    "methods": {},
    "version": 1
  }
}